:10000000D2C00000EDC00000EBC00000E9C000005D
:10001000E7C00000E5C00000E3C00000E1C0000050
:10002000DFC00000DDC000000C9447170C941318CB
:100030000C94CB12D5C00000D3C00000D1C000008A
:10004000CFC00000CDC00000CBC00000C9C0000080
:10005000C7C000000C944213C3C00000C1C0000020
:10006000BFC00000BDC00000BBC00000B9C00000A0
:10007000B7C00000B5C00000B3C00000B1C00000B0
:10008000AFC00000ADC00000ABC00000A9C00000C0
:10009000A7C00000A5C00000A3C00000A1C00000D0
:1000A0009FC000009DC000009BC000000400050030
:1000B00006000C0379006500380075006D00000033
:1000C000140379006500620075006D00200079005E
:1000D0006F006F0000000403090409023B000201E5
:1000E00000A0FA0904000001030101000921110127
:1000F00000012244000705810308000109040100F2
:100100000103000000092111010001223B00070545
:1001100082032000011201000200000008EDFE0130
:100120000000010102000105010906A10185060583
:100130000719E029E71500250195087501810205D9
:1001400007190029EF1500250195F07501810205B9
:10015000081901290595057501910295017503910D
:1001600001C005010906A101050719E029E71500ED
:100170002501950875018102950175088101050722
:10018000190029FF150026FF009506750881000556
:10019000081901290515002501950575019102959C
:1001A0000175039101C011241FBECFEFDAE0DEBF5D
:1001B000CDBF11E0A0E0B1E0E0E1F5E302C00590C1
:1001C0000D92A632B107D9F722E0A6E2B1E001C054
:1001D0001D92A031B207E1F70E94120E0C94531A3F
:1001E0000FCF89EA611101C08AEAA8D181E00895A0
:1001F000862B69F4433058F4E42FF0E0EE0FFF1F34
:10020000E455FF4F85919591282F822F089521E085
:1002100090E0FBCFEDCF089581E0089581E008954F
:10022000FBCF089581E0089581E00895FDCF089502
:1002300008950895FDCF089508950895A6E0B0E0CB
:10024000E4E2F1E00C94CF1949835A839E83309104
:100250002D0189819A81311117C03E81311589F0B4
:10026000211579F092D4182F682F89819A8174D43E
:1002700069817A81812F0E94A00B2696E3E00C947D
:10028000EB1976D4182FF4CF80D469817A81F3CF1B
:10029000FC01262F40815181628173818481958187
:1002A000CDCFCF93DF93EC0161E0F2DFBE01B6DF8B
:1002B000811529F061E0CE01EBDFBE01B1DFDF91F6
:1002C000CF9108950F931F93CF93DF93EC0160E0DC
:1002D000DFDF8C01BE01ADDFBE01C801ABDFDF9106
:1002E000CF911F910F9108950F931F93CF93DF9399
:1002F000EC0161E0CDDF8C01BE0194DF811106C00D
:1003000080E0DF91CF911F910F910895BE01C80148
:100310008DDF8115A9F3BE01C8010E94BB108115B4
:1003200079F3BE01C8010E94820F811549F3BE0115
:10033000C8010E945B0F811519F3BE01C8010E941C
:10034000A30C8115E9F2BE01C8010E94B50C81150C
:10035000B9F2BE01C8010E94CF0CD3CF21E030E03A
:1003600002C0220F331F8A95E2F7C90130C3CF9331
:10037000C82F81E090E00C2E02C0880F991F0A94CC
:10038000E2F70E94E1098C2FE9DFCF91089581E027
:10039000089581E00895FBCF0895CF93C82FC6D26A
:1003A0008C2FF7DF8C2FF7DFCF91089581E0F5DFF9
:1003B0000C94661380E0F1DF0C9477133DDF0E940C
:1003C000841217C018D039DF0C94881281E0089588
:1003D0000895CF93DF93D82FF9DFC82F811511F03F
:1003E0008D2FF6DF8C2FDF91CF9108950895F1CFF7
:1003F000089580E0FCCF0E940911F9CFCF930E94AD
:100400000911C82F809128018C1771F0C093280121
:100410000E9436136093290170932A0180932B0167
:1004200090932C018C2FE3DFCF910895ADE0B0E0E5
:10043000ECE1F2E00C94D019488759876A877B87F2
:100440008C879D879111AFD61F8286E0FE0138967A
:100450009E012F5F3F4FD90101900D928A95E1F7E0
:100460008D8181110CC029813A814B815C816D8124
:100470007E818F81E3D52D96E2E00C94EC19CE01BC
:1004800001960FDF8111EFCFF6CFFC0124812130DF
:1004900019F480819181ACC30895CF93C82F811541
:1004A00081F08450813A78F48C2F0E945D1181157F
:1004B00021F08C2F0E94FA11FFD68C2F0E94E3119D
:1004C000FBD6CF9108958C2F805E8830D0F781E0E5
:1004D000C1FD84E0C0FD880FC2FD829545D6F0CFF6
:1004E000811539F0982F9450913A20F40E94FA1116
:1004F000E3C60895982F905E9830D8F7982F81E042
:1005000091FD84E090FD880F92FD829533D6F0CF67
:100510001F93CF93DF93182FEB01BFDF209731F4A8
:10052000812FDEDFDF91CF911F9108958FE99FE04A
:100530000197F1F700C000002197F0CF60E570E06F
:10054000893311F060E070E0E3CF811511F00CD633
:10055000B3C60895811511F00DD6AEC60895A0E07A
:10056000B0E0E5EBF2E00C94CA196C01D62FC72F6E
:10057000FC011581068102950F70EBD5E82E8115DF
:10058000E9F0E12E1115D1F08C2F807F803461F0DD
:100590008D2F805E883078F18C2F807E803221F420
:1005A000D23048F1011539F18091FC0182FF23C05E
:1005B00082E0A5D6CED591E08927E82E9C2F929592
:1005C0009F70983009F4ABC0C0F4923030F1925F64
:1005D0009F70923008F44BC0E11409F4D0C0B5D537
:1005E00080FDCDC0F6011582AAD521D2C6017BD1EE
:1005F000A6D52BD2C4C0E12CE1CF993009F401C1BA
:100600009A5F9F70923040F7D23F09F007C18C2F5C
:100610008F71111101C10BD2AFC00C2F0F70C031FF
:1006200010F00295007F111581F0011549F08D2F12
:10063000805E883010F0D11105C0802F95D53CD652
:100640008D2F33C0802FA1D5FACF8D2F49DF011513
:1006500009F4C2CF8D2F805E883010F0D11103C015
:10066000802F88D502C0802F96D526D6B5CF8C2F67
:100670008F70F82EC07FC03219F0F29480EFF8220C
:10068000D13038F081F1111509F439C00115D1F0DC
:10069000D7CF8091FC0182FD11C0111541F0F114FA
:1006A00019F08F2D61D508D680E0F7DE95CF80E078
:1006B00017DFF11409F490CF8F2DD3CF111551F01E
:1006C000013018F48F2D41DF87CF09F085CF8F2DB2
:1006D0007ED582CF011180CF8F2D3CDF8F2D82D52B
:1006E0008F2D67D579CF111521F0063008F074CF22
:1006F000E9CF053008F070CF8F2D2CDF6DCF0115BD
:10070000D9F3D93349F48FEF97EE23E0815090402D
:100710002040E1F700C000008D2FE2DE5DCF8C2F7E
:100720008370C1F5111128C04D2F42954695477031
:10073000440F440F2D2F2F7030E0042E02C0220FE3
:10074000331F0A94E2F780E090E0D4FF09C08FE005
:1007500090E002C0880F991F4A95E2F78095909526
:10076000C695C695C370822B932BC23079F0C330E7
:1007700079F0C13049F034D10E94091138DECDB78B
:10078000DEB7E8E00C94E61924D1F6CF30D1F4CFEF
:100790001ED1F2CF111559F1C0FFEECF4D2F42956A
:1007A00046954770440F440F2D2F2F7030E0042ED4
:1007B00002C0220F331F0A94E2F780E090E0D4FFDA
:1007C00009C08FE090E002C0880F991F4A95E2F7B8
:1007D00080959095C695C695C370822B932BC23099
:1007E00061F0C33061F0C13031F054D1C5CF8230F7
:1007F00008F4C2CFD3CF47D1BFCF53D1BDCF04D19F
:10080000BBCFCF70111529F08C2F11D18D2F9DDE0C
:10081000B3CF8D2F9FDE8C2F18D1AECF58F4D03FA1
:10082000B1F0D13F79F01115B9F1011591F18D2F8A
:1008300034DEA2CFD33FB1F0D43FA9F78091FC01C1
:1008400082FD18C08C2F8F71111531F3E4CE111574
:1008500039F0053008F090CF8C2F8F7106D18CCFF6
:100860000630F8CF111521F08C2F8F71D7D084CF9F
:10087000D2D082CF111529F063E08C2F8F7128D54B
:100880007BCF81E03CD5023008F476CF82E037D5CB
:1008900073CF8C2F8F71BFCE011571F0D93349F40E
:1008A0008FEF97EE23E0815090402040E1F700C0A9
:1008B00000008D2F15DE60CF8C2F8F71ADCF0F9381
:1008C0001F93CF93DF93EC01688179818D8199D15A
:1008D0008C01EED07BD0B801CE0141DEDF91CF910B
:1008E0001F910F910895CF93DF93EC018C818115B7
:1008F00081F0CE01F9DC81110FC02BD4811549F0B4
:100900008D81811531F08091FC0182FF02C082E06F
:10091000F6D4DF91CF910895CE01D1DFCE01D2DCA4
:10092000F8CF41D4C9C40E941112FBCF2BD4FBCF06
:10093000282F92959F70963099F060F4925F9F7087
:10094000923030F4203FB1F038F481E0283E38F0A6
:1009500080E008959A5FF3CF81E0243FC9F70895BE
:1009600091E0813F09F090E081E0283E08F080E0CE
:10097000892B089581E00895FC012481211521F03F
:100980008081918135D1D4CF80E00895A6E0B0E098
:10099000ECECF4E00C94D0192696E2E00C94EC19FF
:1009A000A7E0B0E0E6EDF4E00C94D0192796E2E081
:1009B0000C94EC190895FECF0895FDCF0895FADF49
:1009C000FCDF809334019093350108950895F7CFAB
:1009D00008952091340130913501822B932BEFCF74
:1009E000209134013091350182239323E8CF209167
:1009F00034013091350182279327E1CFDBCF089571
:100A0000FDCF0895D7CF0895FDDFFADF809332013F
:100A100090933301089580E090E0F6CF21E030E03C
:100A200002C0220F331F8A95E2F7C901EDCF21E002
:100A300030E002C0220F331F8A95E2F78091320125
:100A400090913301822B932BDFCF21E030E002C065
:100A5000220F331F8A95E2F720953095809132015D
:100A60009091330182239323CFCF21E030E002C065
:100A7000220F331F8A95E2F7809132019091330162
:100A800082279327C1CF2091320130913301822BED
:100A9000932BBACF209132013091330182239323DB
:100AA000B3CF209132013091330182279327ACCF0D
:100AB0000895CF93C1E061FDC4E060FDCC0F62FDFD
:100AC000C29593E0769567959A95E1F7660F771F43
:100AD000660F771F460F571FFA0140E050E090E085
:100AE0006191DF019C01042E02C0369527950A947E
:100AF000E2F72695220B26272C2326272E934F5FDD
:100B00005F4F4430510561F7CF910895A82FA7702A
:100B100023E0969587952A95E1F7880F991F880F0E
:100B2000991F680F791FFB0140E050E080E02191A0
:100B300030E00A2E02C0369527950A94E2F721701C
:100B4000042E01C0220F0A94EAF7822B4F5F5F4FF9
:100B50004430510561F70895262F911108C0833064
:100B600030F4682F70E04EE251E0822FA2CF08955A
:100B7000911109C0833028F46EE271E090E0C6DF85
:100B8000982F892F089590E0FCCFCF92DF92FF92AB
:100B90000F931F93CF93DF936C010091320110915B
:100BA00033018091340190913501082B192BCFE04E
:100BB000D0E081E090E00C2E02C0880F991F0A94CB
:100BC000E2F780239123892B61F4219790F7F12C90
:100BD0008F2DDF91CF911F910F91FF90DF90CF90DC
:100BE0000895FC2EB6018C2FB6D5019771F3F0CF86
:100BF000CF93DF93EC01C9DFBE01ADD5DF91CF917B
:100C000008951F93CF93DF93EB0190912D019115E0
:100C100031F0CB01EDDFDF91CF911F910895811568
:100C200051F0CB01B2DF182F682FCE0195DFBE0146
:100C3000812F91D5F0CFCB019BDF182FF8CF0F93E9
:100C40001F930091360180913701801303C01F91DB
:100C50000F91089587E0089FF0011124E85CFE4F92
:100C6000208131814281538164817581868198DE42
:100C70000F5F1F4F0770E7CF209170013091710116
:100C800040917201509173016091740170917501EE
:100C90008091760185CE80917601803170F48091CB
:100CA0007501811551F0E0913601209137013091A5
:100CB0007101409170012E1301C00895BF0187E0BA
:100CC000E89FF0011124DF01A85CBE4F14968C91BF
:100CD0001497811549F111968C911197831324C0B3
:100CE0008C91841321C015968C91159781111CC08D
:100CF00012968D919D91A0917201B09173018A1B02
:100D00009B0B883C910580F4809176018F70806107
:100D100080937601E25CFE4F80818F7080618083DA
:100D200080E791E0E0DD8BCF6F5F7F4FFB01E770E5
:100D3000C2CFE091360190913701E91302C080E003
:100D400008959F0157E0E59FF0011124E85CFE4FF4
:100D50005181561306C05081581303C05581541356
:100D600005C02F5F3F4FF901E770E7CF81E008959D
:100D70008F929F92AF92BF92DF92EF92FF920F936A
:100D80001F93CF93DF93CDB7DEB72D970FB6F894AF
:100D9000DEBF0FBECDBF8C0186E0F801DE011896E4
:100DA00001900D928A95E1F7F801F580848190E732
:100DB000892E91E0992E90917401911117C081159F
:100DC00009F4EFC0F11409F42EC1C801D5DD811575
:100DD00009F429C187E0F801D40101900D928A95A8
:100DE000E1F7C40152DB57DF47DFDBC0E080A280C0
:100DF000B380D09075012091720130917301A501EB
:100E0000421B530BD11409F4CFC0483C510508F0E4
:100E10009EC0811509F4C5C09091710191808091A7
:100E20007601803108F065C0991226C0909170015A
:100E30009E1122C0F11057C08F708061809376019F
:100E40001BDF80E791E04FDD80917601F80186831A
:100E5000F12C8F2D2D960FB6F894DEBF0FBECDBFAF
:100E6000DF91CF911F910F91FF90EF90DF90BF9096
:100E7000AF909F908F900895F11035C040E0692D9C
:100E80008E2D57DF40E0692D8E2D53DFF82E811116
:100E9000DFCF88859985ACDE292F22952F7090347D
:100EA00050F49F70223078F0911591F0F8019681FE
:100EB000903170F4CECF2A5F2F70223070F0C801CD
:100EC00012DDFD2CC6CF911519F0811509F4C1CFA3
:100ED000805E883008F4BDCFF2CF803F08F4B9CFF0
:100EE000815F8330F7CF80917601816080937601B6
:100EF000AFCF991207C0909170019E1103C0F114F9
:100F000009F473C0C80138DD811509F48CC0F114EF
:100F100009F489C080917601803280F020917001BF
:100F20003091710129833A83AB82BC829091740124
:100F30009D831E828F83CE010196D5DC87E0F80168
:100F4000A0E7B1E001900D928A95E1F74CCF909126
:100F50007601903188F4488559856A857B858C8532
:100F60009D8514DD80E791E0BEDCF40187E01192FD
:100F70008A95E9F781DE6CCF811599F02091710196
:100F800081812813BFCF809170018E11BBCFF110EA
:100F9000B9CF9683C801A7DCF40187E011928A9546
:100FA000E9F7FF24F39455CF483C510508F03EC0C3
:100FB0008115B9F3F114B9F1909171018181981300
:100FC00029C0809170018E1125C08091760180FD2D
:100FD00018C08031B0F08683807F803F39F08681F1
:100FE000982F907F905F8F70892B8683C8017BDC60
:100FF00087E0F801A0E7B1E001900D928A95E1F752
:10100000F3CE87E0F801A0E7B1E001900D928A9558
:10101000E1F7C7CFC801B0DC811190CF8091760194
:10102000816080937601C8015EDCBBCF488559851D
:101030006A857B858C859D85A9DC97CFAEE0B0E085
:10104000E4E2F8E00C94CF19288739874A875B8758
:101050006C877D878E87CE0108968ADE6C85811528
:1010600099F0611539F0288539854A855B857D853C
:101070008E8596DC809136019091370189133DC0B1
:101080002E96E3E00C94EB1987E09E01285F3F4F1A
:10109000F90127503109D90101900D928A95E1F7A4
:1010A000611541F3A09137018A2F90E083958770F5
:1010B00090E0AC01209136012417150691F097E0DD
:1010C0009A9FD0011124A85CBE4F9E012F5F3F4F15
:1010D000F90101900D929A95E1F740933701AFDD48
:1010E000C9CF24DC1092370110923601E0E7F1E01D
:1010F00087E011928A95E9F7BDCF17E0189FC001EC
:101100001124885C9E4F34DE811509F4B9CFE0913B
:1011100036011E9FF0011124E85CFE4F20813181D1
:10112000428153816481758186813ADC80913601E8
:101130009091370101968770809336019BCF809103
:101140009F01869586958695089580919F01877069
:10115000089590919F01977081E0911101C080E006
:1011600008958091CB0108959091CB01982B909395
:10117000CB0108958095982F8091CB01892380938E
:10118000CB0108951092CB0108959091CA01982B3C
:101190009093CA0108958095982F8091CA01892360
:1011A0008093CA0108951092CA0108950895FECF50
:1011B00008959091A001292F282329F08095892353
:1011C0008093A001F4CF08950895FECF08959091E3
:1011D000A101292F2823281721F0982B9093A101F2
:1011E000F4CF08959091A101292F282329F080950B
:1011F00089238093A101E9CF08958091A1018115F0
:1012000021F01092A10180E0E0CF0895CF93C0912A
:10121000CB018091CA01C82B8091A101811529F0D1
:10122000C82B0E9437118111E8DF8C2FCF910895D0
:10123000CF93DF93C0910201D0910301E7DF888350
:10124000C0910201D091030148E050E067E971E0EC
:10125000CE010E940B1A892B51F088E0FE01A7E90C
:10126000B1E001900D928A95E1F7CE01E1D7DF91CF
:10127000CF910895CF93DF93C0910001D0910101E8
:10128000C5DF8983C0910001D091010140E250E0A7
:1012900067E771E0CE010E940B1A892B51F080E2C2
:1012A000FE01A7E7B1E001900D928A95E1F7CE012A
:1012B000CCD7DF91CF910895A5D7811529F08091E2
:1012C000FB0187FF01C0D6CFB3CF0895FECF0895AD
:1012D0009091FC0192FF0EC0982F990F990F990FD2
:1012E000962B90939F01A3DB80919F018695869515
:1012F0008695ECCF9CCB10929F0180E0E7CF909138
:101300009F018095892380939F01282F277059F48E
:10131000891749F09091FC0192FF05C0869586954A
:10132000869593DBE8CF08959091FC0192FB2227EC
:1013300020F9281749F080FB92F99093FC018BEF7C
:1013400091E043D082E0DBCF08958091FC0100243E
:1013500082FF0394802DE8CF81E0E6CF80E0E4CFE8
:1013600080E090E0BC0182C380E090E0BC0178D3D3
:10137000F7CFA3E0B0E0EFEBF9E00C94D01929D35C
:1013800034D31B82CE01039647D381E090E0809353
:101390003401109235014CD3198284E18A83CE0145
:1013A000019657D3E1DF2396E2E00C94EC19E1CFEC
:1013B000089521C308950EC3089523C3089532C329
:1013C000089536C3089539C3089543C3089554C397
:1013D0000895A6E0B0E0EFEEF9E00C94CE190E947B
:1013E0002A138C018091CC019091CD018017910737
:1013F00071F019821A820E942A13BC0149815A8114
:1014000080E090E013D80093CC011093CD01269694
:10141000E4E00C94EA190E9436136093D6017093AD
:10142000D7018093D8019093D9016093D201709332
:10143000D3018093D4019093D50108950E9436136F
:101440006093D6017093D7018093D8019093D9010E
:101450006093CE017093CF018093D0019093D1011E
:10146000089508950895FDCF08950895FEDFFBCFF8
:101470000895FECF08950895FEDFFBCF81EA9CE03A
:10148000DCD3F0DFF3CF81E0089581E00895FBCF56
:101490000895089508950895FCDFFCDFFCCF8BDFED
:1014A000811101C084DF8AED91E087DF8BEF91E04D
:1014B0008ADF85DF8CDA8091320190913301A0CAF6
:1014C0000E942113C1D34DD3EADF9AD60E94F601C0
:1014D000D3CFA6E0B0E0EFE6FAE00C94CA19D5DF6E
:1014E00081110BC076DF8DD61ED48111A7DF0E943B
:1014F000FE012696E8E00C94E6193AD31091FA0121
:1015000080E0C5D2181771F38091DA0181FDC5D250
:10151000BEDFC82E80E0BBD2082F8091FA010813ED
:1015200002C079DFE0CF8027F82E10E0EE24E394AC
:101530008F2D8E2139F41F5FEE0C1330C9F7009305
:10154000FA01EFCFDD24D394802F8E2109F4D12C22
:10155000C11005C04D2D612F80E0FDD7ECCF612F6C
:1015600080E0E5D78111F6CF19831A820E942A13F1
:10157000BC0149815A8181E09D2D0E941602EACF6B
:101580000F931F93CF93DF93E8D0EC01D23508F08F
:1015900040C0D03508F0B3C0C83ED105F0F4C03E1D
:1015A000D10560F4C53AD10578F4C430D10530F4E2
:1015B00081E0219709F080E0C82FD0E0CE01DF91D3
:1015C000CF911F910F910895CE018D5C9109D06547
:1015D0004397A0F3C0E0D0E0F1CFD03490F4D03204
:1015E00008F0A0C0CE0191509F31A0F78D2F58D1A7
:1015F000082F8C2F90E0B1D0D02FDF71C82FD92BBE
:10160000DDCF8C2F90E0A9D0DF70C82FD92BD06A06
:10161000D5CFC03882E5D807B8F5C03682E5D807FF
:1016200008F051C0C03482E5D807C8F4C03282E562
:10163000D80708F042C08C2F8695869520E2829FBD
:10164000C0011124C37021E030E002C0220F331F1B
:10165000CA95E2F7E901C82BD92BDD68AFCF8C2FF3
:1016600086958695877020E2829FC0011124C37001
:1016700021E030E002C0220F331FCA95E2F7E901F2
:10168000C82BD92BDC689ACFC03C82E5D80750F430
:101690008C2F8F71C03AD24558F5982F84EF906AFD
:1016A000EC018CCFCE01805C9245809708F092CF00
:1016B000DC2FDF71C0EFD06A81CF8C2F8F71D82FD4
:1016C000C1EFD06A7BCF8C2F86958695877020E2FC
:1016D000829FC0011124C37021E030E002C0220FBC
:1016E000331FCA95E2F7E901C82BD92BDA6866CF18
:1016F000D7D0982F80E09F71EC01D0625FCF8C2F04
:101700008F71CED053E0CC0FDD1F5A95E1F7DF701B
:10171000282F84FF04C090E1899F90011124C22FDB
:10172000D0694CCF8D2F8F71BBD0082F8C2F90E0BC
:1017300014D0302F3F71282F392B3062E9013ECF72
:10174000462F711105C0633018F460E00C940A0153
:1017500080E090E00895F4DF13CF803E9105D1F151
:10176000C8F48133910509F481C048F489329105A8
:1017700009F471C08A32910509F47FC00895893354
:101780009105E1F082389105C9F08533910509F49E
:101790005DC00895843E9105D1F148F4823E9105E3
:1017A00031F1833E910541F181EE90E00895863E4E
:1017B0009105C1F1873E9105F1F108952091FB015A
:1017C000237009F064C02091FC0123FF14C089E25A
:1017D00090E008952091FB0120FD45C03091FC016F
:1017E00030FF09C024FD24C083EE90E008952091CD
:1017F000FB0122FDF7CF08952091FB0122FD44C09B
:101800003091FC0130FD43C024FFF5CF11C0209181
:10181000FC0121FFF0CF8091FB0184FD09C087EE20
:1018200090E008952091FB0123FFE5CF24FFF7CF3F
:1018300080E090E008952091FB0123FD2BC03091C2
:10184000FC0131FFE1CF84EE90E008952091FB018F
:1018500025FFD1CFBCCF2091FB0125FD1EC02091DB
:10186000FC0123FFC8CF89E390E008952091FB019C
:1018700026FFC1CF8AE290E008952091FB0126FF68
:10188000BACF81E390E0089582EE90E0089580EE73
:1018900090E0089586EE90E0089585E390E0089545
:1018A0009091FB0192FF10C041E0282F2471243059
:1018B00009F040E031E0282F2871283009F030E0AD
:1018C000431711F02CE0822793FF10C041E0282F2E
:1018D0002471243109F040E031E0282F28712831AB
:1018E00009F030E0431711F02CE082273091FC0121
:1018F00030FF10C051E0282F2171213009F050E055
:1019000041E0282F2871283009F040E0541711F0E9
:1019100029E0822731FF10C041E0282F21712131B9
:1019200009F040E031E0282F2871283109F030E03B
:10193000431711F029E0822794FF02C083FD877EC0
:10194000089580E00895CF939C01205E3245C1E068
:101950002032310538F4FB01C581C11103C08F71FC
:101960000E94B7018C2FCF9108959C01FB018581C6
:10197000811599F02B359CE7390769F02C359CE7E8
:10198000390721F02A353C4721F00895DEDC80E05C
:101990000895E2DCFCCFE2DCFACF81E008959C01FF
:1019A000FB018581811599F021309CE7390761F0B1
:1019B00023309CE7390739F021153C4749F40E9450
:1019C000D60180E00895F5DC0E94DA01FACF81E0CB
:1019D0000895089580E090E00E94201A9C0181E023
:1019E000233E3E4F09F080E0089563EE7EEF80E0F5
:1019F00090E00C943F1A6FEF7FEF80E090E00C9442
:101A00003F1ACF93DF93EC0182E090E00E94181A16
:101A10008883DF91CF910895FC01608182E090E09E
:101A20000C94251A83E090E00E94181A90E0089523
:101A3000682F83E090E00C94251ACF93DF93EC019C
:101A400084E090E00E94201A88839983DF91CF91EF
:101A50000895FC016081718184E090E00C943F1A4C
:101A6000AB01BC018FE090E00C94371AAB01BC01D4
:101A700083E190E00C94371A682F8EE090E00C948C
:101A8000251A0895FECF08950895FECF0895E82FF2
:101A9000F0E0E250FE4F80810895089580EA8A9533
:101AA000F1F7089500C00895F9CF0895F894E82F4C
:101AB000E295EF70F0E041A18F7021E001C0220FAC
:101AC0008A95EAF7922F9095942391A392A1822F61
:101AD000892B82A37894089581E9E8DF82E9E6DF23
:101AE00083E9E4DF80E9E2CFEF92FF920F931F9347
:101AF000CF93DF937C01062F142FC62FD0E0CE5E4C
:101B0000DE4F28812F3F29F1F894E22FE295EF7004
:101B1000F0E031A12F7081E001C0880F2A95EAF72B
:101B2000932F982B91A392A18095892382A37894D7
:101B3000B9DFF7014081489B11C01095412310E0A7
:101B4000F701408388818F3F09F0B0DF612F802F3C
:101B5000ABDFCDB7DEB7E6E00C94E819412B11E01E
:101B6000EFCFBADF1092FE011092FD0128D08ACF8C
:101B7000A1E0B0E0EEEBFDE00C94CE1919828D01EE
:101B8000402F612FCE010196AFDF1F5F000F133092
:101B9000B9F79091FD01898141E098130DC040E0B3
:101BA0006EEF71E08DEF91E00BD0182F6EDF812F7B
:101BB0002196E4E00C94EA198093FD01F1CF089599
:101BC000EF92FF920F931F93CF93DF937C018B01D2
:101BD000C42F411571F081E08093DD013BD58093E6
:101BE000DB019093DC0180E0CDB7DEB7E6E00C943A
:101BF000E819D091DD01D115B1F38091DB0190910D
:101C0000DC01B9D4059778F3F7018081F801908160
:101C1000981711F08083CD2F1092DD018C2FE4CF27
:101C200058CC0895B1D48CD629DCA2D649DCA9D6EB
:101C3000ABD6F6DFBFD630DCFBCF80932601909386
:101C40002701089520CC0895EFEDF1E088E011928E
:101C50008A95E9F7DFC0FC01228130E023952370EB
:101C600030E0938181E09217130609F080E0089537
:101C70000F931F93CF93DF93EC01162F042FEBDF0D
:101C8000811114C08A81FE01E80FF11D912F00FB24
:101C900097F994838F5F83708A8388818F5F8883AD
:101CA00081E0DF91CF911F910F91089580E0F9CFEE
:101CB000FC01A38182818A17B1F0AE0FBF2FB11D45
:101CC00014968C9187FB992790F98F77DB018C9381
:101CD000DA019C9383818F5F8370838381818F5F1F
:101CE000818381E0089580E00895462F682F8FED6D
:101CF00091E0BECFAB01BC018FED91E0D9CFCF9386
:101D0000DF93D62F0E94F100C82F811541F06AE0C1
:101D100070E08EE4D11101C08BE40E9488028C2F08
:101D2000DF91CF910895A2E0B0E0E9E9FEE00C94E4
:101D3000CE198091DE01811551F01092DE01809163
:101D4000E1018093E2018091DF018093E0019CD06A
:101D500079DF182F811569F010E004C06981182F10
:101D60008A81CDDFCE010196BC010196C3DF8111CE
:101D7000F5CF812F2296E4E00C94EA198FE891E0E8
:101D80000197F1F700C00000089520B36C506F7008
:101D900081E001C0880F6A95EAF7982F9095922309
:101DA00090BB91B3892B81BB08958FB190E06C50AB
:101DB0006F7002C0959587956A95E2F781700895D6
:101DC0000895CF93DF93C0E08091E701C81750F0EA
:101DD000D5DFC0E08091E701C81760F0F1DFDF9147
:101DE000CF91089560E08C2FD0DF61E08C2FCDDFA4
:101DF000CF5FEACF60E08C2FD8DFD82F61E08C2F47
:101E0000D4DFEC2FF0E0E751FE4F880F8D2B80835D
:101E1000CF5FE0CF81E08093E701D3CF1F93CF93D3
:101E2000DF93182F440F642BC82FD0E0DE01A75199
:101E3000BE4FEC918E2F8370681711F1EE0FEE0FED
:101E4000E62BEC93EF70F0E0EB5EFE4FC851DE4FF7
:101E500080819881890F888384301CF060E0812F15
:101E600044DF88818D3F1CF461E0812F3EDF888153
:101E7000982F990F990B64E070E00E94A71988834E
:101E8000DF91CF911F910895CF93DF93C0E08091B0
:101E9000E701C81718F0DF91CF91089561E08C2F0A
:101EA00084DFD82F60E08C2F80DF4D2F682F8C2FA0
:101EB000B5DFCF5FECCFCF93DF93EB0186319C474B
:101EC000F9F44FD99D81911591F08A7A91E08111B1
:101ED00001C090E09093EA01811539F085E373D257
:101EE000EBD980E0DF91CF91089589E2F8CF80911E
:101EF000EA01811519F085E37DD2F2CF89E2FCCFAA
:101F000081E0F0CFCF93DF93EC01FB018581811558
:101F100009F4C8C09E0130572332310508F0A8C02B
:101F20008BEF91E050DAFE01E150F047E232F1052B
:101F300020F4EB5AF54E0C94BA198091FB018160A4
:101F40008093FB018FC08091FC0188608093FC012D
:101F500089C08091FB018260F3CF8091FB01846096
:101F6000EFCF8091FB018860EBCF8091FC01816015
:101F7000EDCF8091FC018260E9CF8091FB0180610F
:101F8000DFCF8091FB018062DBCF8091FB01806419
:101F9000D7CF0E9496048091FB018068D1CF8091B9
:101FA000FB018C60CDCF8091FC018360CFCF80910D
:101FB000FB018E7FC5CF8091FC01877FC7CF8091C9
:101FC000FB018D7FBDCF8091FB018B7FB9CF8091CD
:101FD000FB01877FB5CF8091FC018E7FB7CF8091C9
:101FE000FC018D7FB3CF8091FB018F7EA9CF8091C3
:101FF000FB018F7DA5CF8091FB018F7BA1CF0E943C
:1020000096048091FB018F779BCF8091FB01837FAA
:1020100097CF8091FC018C7F99CF9091FB01892F04
:102020008B7F92FF8460877F92FF886089CF809149
:10203000FC01982F909590FB80F990FB81F986CF59
:102040009091FB01892F8F7B96FF806479CF0E944E
:1020500096049091FB01892F97FB87F9805870CFE8
:1020600081E0B5D98BEF91E0B0D90E94960480E071
:10207000DF91CF91089580E0F4CF9091FB01892FFB
:102080008F7E94FF80615CCF9091FB01892F8E7FC2
:1020900090FF816055CF9091FC01892F877F93FF3E
:1020A000886054CF81E0E4CF0F931F93CF93DF93E9
:1020B000C42FD22FFC0185818115C9F04093ED0119
:1020C000C9D28093EB019093EC018C2F805E883015
:1020D00048F481E0C1FD84E0C0FD880FC2FD829517
:1020E0000E94A502DF91CF911F910F910895109149
:1020F000ED01141333C08091EB019091EC013BD2C0
:10210000883C910558F5CD2FC05E1D17C1F0812F79
:10211000805E883048F481E011FD84E010FD880F76
:1021200012FD82950E94AA02C83048F481E0D1FDD8
:1021300084E0D0FD880FD2FD82950E94A502802FF9
:102140000E949E0281E0D1FD84E0D0FD880FD2FD87
:102150008295C83038F60E94AA02C4CF8C2F805EC8
:10216000883008F0BFCF81E0C1FD84E0C0FD880F5A
:10217000C2FD8295F0CF0F93FC01CB01E851FC47E3
:10218000E730F10588F5E958F54E0C94BA1906E2E6
:1021900021EE41EE6AE17CE787DF80E00F91089550
:1021A00007E225EE45EE6BE17CE7F6CF06E221EE95
:1021B00040EE68E17CE7F0CF07E225EE44EE69E10E
:1021C0007CE7EACF06E221EE42EE6CE17CE7E4CF69
:1021D00007E225EE46EE6DE17CE7DECF08E221E086
:1021E00045EE6EE17CE7D8CFFB018581811110922D
:1021F000ED0181E0D3CF8093EE019093EF0108953C
:102200000895089560D1982F81E0913009F080E021
:102210000895E091EE01F091EF01309739F00190CF
:10222000F081E02D309711F00995089580E0089530
:10223000E091EE01F091EF01309731F00280F381EF
:10224000E02D309709F009950895E091EE01F091A5
:10225000EF01309759F024813581232B39F026E0A6
:10226000DC012C930480F581E02D09950895CF932E
:10227000DF93C0910201D0910301C4DF811521F0E9
:102280008091FB0187FD11C09E012E5F3F4F96E0BC
:1022900080E09150F90140812F5F3F4F41118F5FE6
:1022A0009111F7CFDF91CF910895209100013091E6
:1022B00001012E5F3F4F9EE1EBCFCF93C82F8111DD
:1022C00002C080E02EC09EDF811521F08091FB01CD
:1022D00087FD0FC08091020190910301FC013296AD
:1022E000089620812C17F9F03196E817F907C9F7FD
:1022F000E8CF8C2F869586958695C03F10F7E091A4
:102300000001F0910101E80FF11D228130E0C7705A
:1023100081E001C0880FCA95EAF7282381E0232BCA
:1023200081F2CF91089581E0FCCF9C01FC013296AF
:1023300080E09FEF4081461759F031969F3F19F496
:10234000411101C0982F8F5F8630A1F79F3F09F49C
:102350000895290F311D97FD3A95F901628308957B
:10236000FC01329608962191261302C0DF011E92CD
:10237000E817F907C1F70895262F26952695269583
:10238000603F60F4820F911DFC01677021E001C085
:10239000220F6A95EAF78281822B82830895262F85
:1023A000269526952695603F68F4820F911DFC01C5
:1023B0009DEF61FD97EF60FF959562FD929582819B
:1023C000892382830895CF93C82F1CDF6C2F81153A
:1023D00059F08091FB0187FF07C080910001909127
:1023E0000101CADFCF91089580910201909103010C
:1023F0009CDFF8CFCF93C82F05DF6C2F811559F0E4
:102400008091FB0187FF07C080910001909101013D
:10241000C6DFCF9108958091020190910301A0DF62
:10242000F8CFF0DE811571F08091FB0187FF0AC0C3
:10243000E0910001F091010132968EE111928A95AE
:10244000E9F70895E0910201F0910301329686E0E8
:10245000F5CF0895FECF08958F5F809307016091B7
:102460000401709105018091060190910701F2CF5E
:1024700083E08093070160910401709105018091D0
:10248000060190910701E6CFE7CF089581E08093A0
:1024900007016091040170910501809106019091FE
:1024A0000701D8CFF3CF089591E0811101C090E0EA
:1024B00090930601609104017091050180910601DD
:1024C00090910701C7CF809106010895809305017F
:1024D00060910401709105018091060190910701BE
:1024E000B9CF8091050108958093040160910401A2
:1024F000709105018091060190910701ABCF809109
:102500000401089508950895FECF0895089508954B
:10251000F9CF0895FBDF2CDBFADF80E0B8DA982FE3
:102520008093F00181E0911101C080E00895E82FCF
:10253000F0E0E051FE4F808190E021E030E002C009
:10254000220F331F6A95E2F72823392381E0232BDA
:1025500009F480E0089541110DC0E82FF0E0E0514A
:10256000FE4F21E001C0220F6A95EAF72095808195
:10257000282320830895CF93DF93EC016BD08C1B2D
:102580009D0BDF91CF91089585B7806885BF85B792
:10259000806885BF08951F921FB61F9211248F93E4
:1025A0009F93AF93BF938091F101811113C08091EC
:1025B000FF0190910002A0910102B09102024196A8
:1025C000A11DB11D8093FF0190930002A093010211
:1025D000B0930202BF91AF919F918F911F901FBE48
:1025E0001F90189580910702843031F10E94DE011E
:1025F0001092F10188E190E020E40FB6F894A895DC
:10260000809360000FBE2093600083B7817F846059
:1026100083BF83B7816083BF7894889583B78E7FAB
:1026200083BF0FB6F894A89580916000886180936D
:102630006000109260000FBE08950E9496040C94F2
:10264000E20182E084BD93E095BD9AEF97BD80934F
:102650006E0008952FB7F8948091FF0190910002C9
:10266000A0910102B09102022FBF08952FB7F894F4
:102670006091FF017091000280910102909102022D
:102680002FBF089578941F921FB61F9211248F9325
:102690009F93AF93BF938091FF0190910002A0910F
:1026A0000102B09102020196A11DB11D8093FF01AC
:1026B00090930002A0930102B0930202BF91AF91E8
:1026C0009F918F911F901FBE1F90189587E797E7E6
:1026D000809300089093010888E19AE00FB6F8947F
:1026E000A895809360000FBE90936000FFCF88E1B3
:1026F0009AE00FB6F894A895809360000FBE90936F
:102700006000FFCF089508959B01BA0190910702E0
:102710009430D9F48F708093E9009FEF8091E800A6
:1027200085FD06C085ED8A95F1F700009150B1F75F
:102730008091E80085FF09C040E050E0C901ACD1BC
:102740008091E8008E778093E800089540E250E0A1
:10275000BC0182E0D9CFCF93DF93EC01B4DE48E037
:1027600050E0BE0181E0D0DF88E0FE01A2EFB1E0E1
:1027700001900D928A95E1F7DF91CF9108958091B4
:102780000602811107C016D366D38091E2008460EF
:102790008093E200089510920602089577DE81E0AA
:1027A00083CE6091030281E0611101C080E060CEC0
:1027B0009091070281E0943009F080E0609103027B
:1027C00063CE42E061EC81E071D242E261EC82E0F2
:1027D0006DD29091070281E0943009F080E0609121
:1027E00003023ACE80910902893081F148F48230A7
:1027F00009F496C0833009F457C0813041F0089540
:102800008A3009F480C08B3009F468C00895809143
:102810000802813A09F047C08091E800877F8093E1
:10282000E80080910C0290910D02892B59F060E034
:1028300080E090E070E07DD18091E8008B7780931C
:10284000E800089568E082EF91E0F4CF80910802FB
:10285000813249F580910C0290910D02029718F592
:102860008091E800877F8093E8008091E80082FFF4
:1028700016C02091F3008091F200922F029731F45C
:102880008091F100813011F0863019F48091F100CF
:102890001DDE8091E8008B778093E8003BC2809139
:1028A00007028111E2CF089580910802813AD9F799
:1028B00080910C0290910D02892BA9F78091E8007C
:1028C000877F8093E8008091E80080FFFCCFFBDDEC
:1028D0008093F1008091E8008E77DECF809108022E
:1028E000813209F780910C0290910D02892BD9F663
:1028F0008091E800877F8093E8000CD280910A02E3
:10290000D3DD0C94960480910802813261F68091A7
:10291000E800877F8093E800FDD180910B02E4CD31
:1029200080910802813A09F0BECF8091E800877F4C
:102930008093E8008091E80080FFFCCFE0DDC8CF05
:1029400084B7877F84BF0FB6F894A8958091600004
:10295000886180936000109260000FBE80E890E074
:102960000FB6F89480936100909361000FBE9ACDEA
:1029700021D271D2E2EEF0E080818460808378948D
:10298000CDC488E091E037CC80910702853029F4EE
:1029900080910702853011F050CE089523DEBADD14
:1029A0008115B1F380910502811591F35FD00E94EA
:1029B0009604EECF08959A0140910E0250910F02B5
:1029C00000C0492F50E043305105C9F070F4413048
:1029D0005105E9F14230510571F48BE390E04AED85
:1029E00050E0F90140835183089541325105E9F0E7
:1029F0004232510519F180E090E040E0F2CF482FDB
:102A000050E0813061F04230510561F0E6EDF0E0D8
:102A10004115510581F7849190E0AF01E2CFE0ECE0
:102A2000F0E0F9CFE2EBF0E0F6CF61307105A0F015
:102A300011F789E090E045E051E0D3CF61307105B6
:102A400080F0C9F68BE390E047E251E0CACF82E123
:102A500090E045E151E0C5CF89E090E04CEE50E0D8
:102A6000C0CF84E490E042E651E0BBCF80E189BD75
:102A700082E189BD09B400FEFDCF8091D8008F7D31
:102A80008093D8008091E00082608093E000809184
:102A9000E00081FDFCCF0895AF92BF92CF92DF920C
:102AA000FF920F931F93CF93DF936C01EB018A0189
:102AB00050D1F82E811123C00115110539F0F8010C
:102AC00080819181C81BD90BC80ED91EA12CB12CB5
:102AD0002097A9F08091E80085FD21C08091E80051
:102AE0008E778093E80001151105A1F0F80180812F
:102AF00091818A0D9B1D8083918385E0F82E8F2D17
:102B0000DF91CF911F910F91FF90DF90CF90BF90F9
:102B1000AF9008951ED18115E9F2F82EF0CFF6019D
:102B200081916F018093F10021978FEFA81AB80A65
:102B3000CFCFFC0120910E0230910F0226173707EC
:102B400020F06115710569F09B0190E021153105B8
:102B500071F491110CC08091E80082FF38C080E0D0
:102B600008959091E8009E779093E800EDCF8091D2
:102B700007028115C1F18530C1F18091E80083FD24
:102B800030C08091E80082FDE6CF8091E80080FFB0
:102B9000DDCF8091F3004091F200582F21153105CF
:102BA00019F04830510558F091E04830510509F0CE
:102BB00090E04091E8004E774093E800C7CF8191C4
:102BC0008093F100215031094F5F5F4FE7CF809133
:102BD0000702811541F0853041F08091E80083FFC4
:102BE000BACF81E0089582E0089583E00895FC0162
:102BF00020910E0230910F022617370720F0611541
:102C0000710569F09B0190E02115310571F4911176
:102C10000CC08091E80082FF39C080E00895809167
:102C2000E8008E778093E800EDCF80910702811550
:102C3000C9F18530C9F18091E80083FD31C08091F0
:102C4000E80082FDE6CF8091E80080FFDDCF809133
:102C5000F3004091F200582F2115310519F048304A
:102C6000510558F091E04830510509F090E080910D
:102C7000E8008E778093E800C7CF84918093F100BD
:102C80003196215031094F5F5F4FE6CF80910702A7
:102C9000811541F0853041F08091E80083FFB9CF84
:102CA00081E0089582E0089583E00895982F973099
:102CB00028F08F708093E90081E008959093E900F7
:102CC000242F762F50E0981731F07091EC0020916E
:102CD000ED005091F00021FD02C09F5FE8CF3091E0
:102CE000EB003E7F3093EB003091ED003D7F309361
:102CF000ED003091EB0031603093EB007093EC000D
:102D00002093ED005093F0002091EE0027FDE5CFD9
:102D100080E008958091080287FF13C08091E80049
:102D200082FF06C08091E8008B778093E8000895C9
:102D3000809107028111F2CF0895809107028115D9
:102D4000D9F38091E80080FFF8CF8091E8008E777A
:102D5000ECCF2091E4003091E50095E6A9012091A7
:102D6000EC00822F817020FF06C08091E80080FF78
:102D700006C080E008952091E80022FD1AC08091ED
:102D80000702811589F0853089F08091EB0085FD7F
:102D90000FC02091E4003091E50042175307F9F28B
:102DA0009150E1F684E0089582E0089583E008956B
:102DB00081E008955FD066D0E0EEF0E08081816030
:102DC0008083E8ED80818F77808319BCA7EDB0E028
:102DD0008C918E7F8C9380818F7E808310920602EF
:102DE0000895CF93DF9346D04DD0C8EDD0E08881D1
:102DF0008F77888388818068888388818F7D8883A6
:102E000019BC109207021092030210920502109250
:102E10000402E0EEF0E080818B7F80838881816016
:102E2000888342E060E080E041DFE1EEF0E0808115
:102E30008E7F8083E2EE80818160808380818860E4
:102E40008083E0EE80818E7F8083888180618883AB
:102E5000DF91CF910895E8EDF0E080818F7E80834F
:102E6000E7ED80818160808384E082BF81E0809390
:102E70000602B7CFE8EDF0E080818E7F808310926C
:102E8000E20008951092DA001092E10008951F9276
:102E90000F920FB60F9211242F933F934F935F938E
:102EA0006F937F938F939F93AF93BF93EF93FF9312
:102EB0008091E10082FF0AC08091E20082FF06C09B
:102EC0008091E1008B7F8093E10027D28091DA002E
:102ED00080FF18C08091D80080FF14C08091DA0074
:102EE0008E7F8093DA008091D90080FF8FC080E1CF
:102EF00089BD82E189BD09B400FEFDCF81E08093E8
:102F000007023DDC8091E10080FF18C08091E20063
:102F100080FF14C08091E2008E7F8093E200809158
:102F2000E20080618093E2008091D800806280930B
:102F3000D80019BC85E08093070233DC8091E10062
:102F400084FF28C08091E20084FF24C080E189BD15
:102F500082E189BD09B400FEFDCF8091D8008F7D4C
:102F60008093D8008091E1008F7E8093E100809172
:102F7000E2008F7E8093E2008091E2008160809386
:102F8000E20080910302811509F445C084E080933A
:102F900007020EDC8091E10083FF27C08091E200F0
:102FA00083FF23C08091E100877F8093E10082E06E
:102FB00080930702109203028091E1008E7F80933C
:102FC000E1008091E2008E7F8093E2008091E20038
:102FD00080618093E20042E060E080E067DE809103
:102FE000F00088608093F000D9DBFF91EF91BF91F2
:102FF000AF919F918F917F916F915F914F913F9191
:103000002F910F900FBE0F901F90189519BC109222
:103010000702C1DB77CF8091E30087FF02C083E026
:10302000B6CF81E0B4CF1F920F920FB60F9211244A
:103030001F932F933F934F935F936F937F938F9340
:103040009F93AF93BF93CF93DF93EF93FF93E9EEFB
:10305000F0E080811091EC008F7010FB112717F9C0
:10306000182B1082C0EFD0E08881877F8883789406
:103070001CD0E9EEF0E010828881886088831F70A0
:103080001083FF91EF91DF91CF91BF91AF919F910D
:103090008F917F916F915F914F913F912F911F91F0
:1030A0000F900FBE0F901F901895AAE2B0E0EAE5CE
:1030B000F8E175C188E092E0FC0101962091F100F1
:1030C000208322E080319207B9F78CDB8091E80001
:1030D00083FF37C080910802909109029A3088F5E9
:1030E000E92FF0E0E258F54E45C1803889F082388A
:1030F00041F580910C028F70873018F58093E900BC
:103100008091EB0085FB882780F91092E90006C0CA
:1031100080910502880F90910402892B9091E8001C
:10312000977F9093E8008093F1001092F1008091D6
:10313000E8008E7722C0811115C080910A0281308B
:1031400001F18091E80083FF0AC08091E800877F49
:103150008093E8008091EB0080628093EB00AA9658
:10316000E3E039C1823069F780910A02811579F074
:103170001092E9008091E800877F8093E800CADD23
:10318000E0CF933009F080E080930502F1CF809189
:103190000C028F70282F2150263098F68093E9007A
:1031A0002091EB0020FFE4CF933031F48091EB00CD
:1031B00080628093EB00DCCF9091EB009061909364
:1031C000EB0021E001C0220F8A95EAF72093EA0084
:1031D0001092EA008091EB008860EBCF8111B1CFB3
:1031E00080910A028F77182F8091E3008078812BDD
:1031F0008093E3008091E800877F8093E8008ADD78
:103200008091E80080FFFCCF8091E300806880938C
:10321000E30083E0111101C082E08093070291CFA7
:103220008058823008F08DCF80910A0290910B0275
:103230008C3D23E0920789F583E08A838AE28983C3
:103240004FB7F894DE01139620E03EE051E2E32F01
:10325000F0E050935700849120FF03C082958F7057
:103260003F5F8F708A30B8F0895C8D931D922F5F1D
:10327000243169F74FBF8091E800877F8093E80091
:103280006AE270E0CE01019654DC8091E8008B7711
:103290008093E80056CF805DE8CF60910C0270917A
:1032A0000D02AE014F5F5F4F86DBBC01892B09F435
:1032B00048CF9091E800977F9093E80089819A81A8
:1032C00096DCE3CF803809F03CCF8091E800877F1F
:1032D0008093E800809103028093F10028CF811150
:1032E00030CF90910A02923008F02BCF8091E80005
:1032F000877F8093E800909303020CDD80910302A6
:10330000811529F084E0809307025BDA1ACF80915F
:10331000E30087FDF7CF81E0F6CF0895CF9380914A
:103320000702811591F08091E900C091EC008F7047
:10333000C0FBCC27C7F9C82B1092E9008091E800A8
:1033400083FDB3DECF70C093E900CF91089597FB62
:10335000072E16F4009406D077FD08D048D007FC5D
:1033600005D03EF4909581959F4F08957095619595
:103370007F4F0895EE0FFF1F0590F491E02D099403
:103380002F923F924F925F926F927F928F929F9275
:10339000AF92BF92CF92DF92EF92FF920F931F9363
:1033A000CF93DF93CDB7DEB7CA1BDB0B0FB6F89414
:1033B000DEBF0FBECDBF09942A88398848885F8454
:1033C0006E847D848C849B84AA84B984C884DF80C5
:1033D000EE80FD800C811B81AA81B981CE0FD11DA9
:1033E0000FB6F894DEBF0FBECDBFED010895AA1B46
:1033F000BB1B51E107C0AA1FBB1FA617B70710F0E0
:10340000A61BB70B881F991F5A95A9F78095909511
:10341000BC01CD010895FB01DC0104C08D91019038
:10342000801921F441505040C8F7881B990B08952A
:10343000F999FECF92BD81BDF89A992780B508957C
:10344000A8E1B0E042E050E020C0262FF999FECF7D
:1034500092BD81BDF89A019700B4021639F01FBAE7
:1034600020BD0FB6F894FA9AF99A0FBE0895039604
:10347000272FECDFEADF252FE9DF242FE7CF0196A6
:10348000272FE4DFE2CFDC01CB01FC01F999FECF6D
:1034900006C0F2BDE1BDF89A319600B40D924150DC
:1034A0005040B8F70895F894FFCFD70F4410DF0FBE
:1034B000A90FAD0FE30FB10FE70FF30FBD0F3D10D5
:1034C000C10FF70FC50FFB0F2010C90FFF0F2710FB
:1034D000CF0F05100D10B50FEB0FB90FEF0FD30F76
:1034E0000910171030103B10A30FDB0F4B10D61034
:1034F000DC10C710D010E210E810EE1075189B1801
:10350000A1189B18A118EE181019A11862196F19AB
:10351000A201C201000001007112AB13A6138313B4
:10352000821391929300FF0100010000FFFF000051
:06353000010001FF000094
:00000001FF
